:100D5C00E4F522F523F524C2AF120E5B7529017F51
:100D6C00807E257D007C00120E39D2AF75907F12EB
:070D7C000BA812058280F8AC
:1003820000C1814001C0804101C0804100C1814063
:1003920001C0804100C1814000C1814001C0804153
:1003A20001C0804100C1814000C1814001C0804143
:1003B20000C1814001C0804101C0804100C1814033
:1003C20001C0804100C1814000C1814001C0804123
:1003D20000C1814001C0804101C0804100C1814013
:1003E20000C1814001C0804101C0804100C1814003
:1003F20001C0804100C1814000C1814001C08041F3
:1004020001C0804100C1814000C1814001C08041E2
:1004120000C1814001C0804101C0804100C18140D2
:1004220000C1814001C0804101C0804100C18140C2
:1004320001C0804100C1814000C1814001C08041B2
:1004420000C1814001C0804101C0804100C18140A2
:1004520001C0804100C1814000C1814001C0804192
:1004620001C0804100C1814000C1814001C0804182
:1004720000C1814001C0804101C0804100C1814072
:1004820000C0C101C30302C2C60607C705C5C40432
:10049200CC0C0DCD0FCFCE0E0ACACB0BC90908C8A2
:1004A200D81819D91BDBDA1A1EDEDF1FDD1D1CDC92
:1004B20014D4D515D71716D6D21213D311D1D01002
:1004C200F03031F133F3F23236F6F737F53534F4F2
:1004D2003CFCFD3DFF3F3EFEFA3A3BFB39F9F83862
:1004E20028E8E929EB2B2AEAEE2E2FEF2DEDEC2C52
:1004F200E42425E527E7E62622E2E323E12120E0C2
:10050200A06061A163A3A26266A6A767A56564A4B1
:100512006CACAD6DAF6F6EAEAA6A6BAB69A9A86821
:1005220078B8B979BB7B7ABABE7E7FBF7DBDBC7C11
:10053200B47475B577B7B67672B2B373B17170B081
:100542005090915193535292965657975595945471
:100552009C5C5D9D5F9F9E5E5A9A9B5B99595898E1
:10056200884849894B8B8A4A4E8E8F4F8D4D4C8CD1
:100572004484854587474686824243834181804041
:03000E00010901E4
:0A0B4D007D067B007A00796F7C00C2
:0A0B57008B338A3489358C368D37D4
:100B61007FFF7538FFE5371537AC36700215364C07
:100B7100602FAB330535E535AA347002053414F91D
:100B81001207896FFFE48F3CF53BF53AF539AE3C2E
:100B9100EE900382936538FFEE90048293F53880DE
:060BA100C4EFFEE538FF81
:010BA700222B
:0E0E7C007B007A00796FE556FD7C00020CFFCA
:1006D300E4F5327862E6F529F52A7864E6F52C1319
:1006E3001313541FF52BE52C54076002052BE4F577
:1006F3002FE52FC3952B5060E52F2403F52D246F91
:10070300F8E4F6F52EAF2A7E007B007A00793012EA
:100713000836746F252DF9E531AE30A82E08800513
:10072300C333CE33CED8F947F7052AE529252CFF65
:10073300E433FEC3E52A9FEE6480F8748098400595
:100743007532018009052EE52EC3940840B7E532C2
:1007530064016004052F8099786FA6090876010863
:10076300A62B7403252BF52BFD120B4FAC06746FD0
:10077300252BF8A604052B746F252BF8A607E52B6C
:0607830004F556020E7C95
:10096700E4F52DF52E7862E6F5297864E625E0F5BD
:100977002AE4F52BF52CC3E52C952AE52B9400509A
:100987002DAF297E007B007A00792D1209EBE52D2A
:10099700FFAE2C74722EF8A60774732EF8A62E7469
:1009A70002252CF52CE4352BF52B052980C8786F0B
:1009B700A60908760308A62A7403252AF52A7B00C8
:1009C7007A00796FFD7C00120B57AC06746F252AED
:1009D700F8A604052A746F252AF8A607E52A04F560
:0409E70056020E7C2A
:100C86007862E6FF08E6FEBEFF08752900752A01B0
:100C96008007EE7004F529F52A7E00AD2AAC2912EC
:100CA6000C43E4FFEFC39555500F745F2FF8E6FE33
:0F0CB600746F2FF8A6060F80EB855556020E7C43
:100BF9007862E6F529FB08E6FE08E67C002400FF9A
:100C0900EC3EAD07FCAF037E00120A6D786FA609B2
:100C1900087606087600E52908F67863E67873F61B
:100C29007864E67874F6752A06120B4DAC0608A6A8
:0A0C390004EF08F6755608020E7C61
:100AE2007862E6F529F52A7864E6F52C08E6F52B16
:100AF200E4F52FE52FC3952C502BE52F25E0246636
:100B0200F8E6FEE52F25E02467F8E67C002400F5F0
:100B12002EEC3EF52DAF2A7E00AD2EFC120A6D059D
:100B22002F052A80CE786FA609087610087600E590
:100B32002908F6087600E52C08F6120B4DAC0608DB
:0B0B4200A604EF08F6755608020E7CB2
:10083600E4F533F534EE540FFE60030208D6EFB448
:100846000C0040030208D6900854F82828730208C2
:100856007802087F02088802089102089A0208A313
:100866000208AC0208B50208D60208D60208C00281
:1008760008C8E59030E040803BE59030E1028034E6
:100886008035E59030E202802B802CE59030E30243
:1008960080228023E59030E4028019801AE59030AA
:1008A600E50280108011E59030E60280078008E5B9
:1008B6009030E703E4800FE48010E430B202800653
:1008C6008008E430B304F5F0800375F0011207CF19
:0408D600AE33AF345A
:0108DA0022FB
:100C4300E4FBFAEE540FFE7035EF24F760250470D1
:100C53002DED4C600FAF907802EF08800123D8FD93
:100C6300F590801AAF907802EF08800103D8FDF564
:100C730090800BED64014C70056390FF80F5AE022C
:020C8300AF03BD
:010C8500224C
:1009EB00E4F52FF530EE540FFE7072EFB40A0050A1
:1009FB006C900A03F8282873020A21020A28020ABB
:100A0B002F020A36020A3D020A44020A4B020A521C
:100A1B00020A59020A60E50A850BF0803DE50C8558
:100A2B000DF08036E50E850FF0802FE5108511F067
:100A3B008028E5128513F08021E5148515F0801AC6
:100A4B00E5168517F08013E5188519F0800CE51A6B
:100A5B00851BF08005E51C851DF01207CFAE2FAF6F
:010A6B00305A
:010A6C002267
:100A6D00E4F530F531EE540FFE7065EFB40A005029
:100A7D005F900A85F8282873020AA3020AA9020AC0
:100A8D00AF020AB5020ABB020AC1020AC7020ACDA9
:100A9D00020AD3020AD98C0A8D0B80348C0C8D0D71
:100AAD00802E8C0E8D0F80288C108D1180228C1233
:100ABD008D13801C8C148D1580168C168D1780103F
:100ACD008C188D19800A8C1A8D1B80048C1C8D1D21
:040ADD00AE30AF3157
:010AE10022F2
:100D2E00E4F529F52AC3E52A9FE5299E501FE4F52F
:100D3E002BF52C052CE52C7002052BE52C640A45B1
:0D0D4E002B70F0052AE52A70DC052980D8FD
:010D5B002275
:10058200E555D3940450030206D27860E624FD6058
:100592001824FE601414601124F7607F14700302A3
:1005A200065C240F60030206D2E555C3940850038B
:1005B2000206D2C2AC785FE66509705C7F0AFE1261
:1005C2000D2E7B007A00795F7D067C00120B578E20
:1005D200258F267865E6FE08E67C002400FFEC3EC7
:1005E200FEEF65267003EE6525702D7860E6B40196
:1005F200061206D30206CB7860E6B4030612096738
:100602000206CB7860E6B40506120C860206CB78A9
:1006120060E6B40603120BF90206CB7865E675278D
:1006220000F5282409F528E43527F527C3E5559573
:1006320028E4952750030206D2785FE6B509177BB6
:10064200007A00795FE52824FEFDE52734FFFC12DD
:100652000B578E258F26E4F555227863E6FE08E6D1
:100662007C002400F528EC3EF527E52825E0F52856
:10067200E52733F52774092528F528E43527F527DA
:10068200C3E5559528E495274046C2AC785FE665F8
:10069200097036FB7A00795FE52824FEFDE52734F0
:1006A200FFFC120B578E258F26AD28745D2DF8E6C0
:1006B200FE745E2DF8E67C002400FFEC3EFEEFB5F2
:1006C2002607EEB52503120AE2C298E4F555D2AC2C
:0106D2002205
:0100120022CB
:100E5B00758951758CF8758ACDD28CD2A9E4F58D34
:100E6B00F58BC28ED2ABD288D28AC2A8D2B8C2AA14
:010E7B002254
:100BA800C20EC20AC20CC2A985545B85535A85522B
:100BB80059855158D2A9300D1DC20DD20E7880E644
:100BC800D39400401116E6700DE555D39400400605
:100BD800E4F555787FF6300B04C20BD20C300910BF
:100BE800C209D20A051FE51FC394144003E4F51F88
:010BF80022DA
:03000B00020CC51F
:100CC500C0E0C0D075D000C000758ACD758CF8E540
:100CD500542401F554E43553F553E43552F552E403
:100CE5003551F551D20D78A106E6C3940A40047634
:0A0CF50000D209D000D0D0D0E032C8
:03001B00020013CD
:0100130032BA
:0E0E8A0025640D0A003078253034580D0A001A
:080003008F993099FDC299228A
:0A0CFF008B338A3489358C368D372B
:100D0900E4FDFCC3ED9537EC95365018AB33AA34A6
:100D1900A9358D828C831207A2FF1200030DBD0035
:040D2900010C80DF5A
:010D2D0022A3
:060DCF008B5C8A5D895E69
:100DD500E4FDFCAB5CAA5DA95E8D828C831207A243
:0D0DE500FF600A1200030DBD00010C80E646
:010DF20022DE
:100DF3007540FF75410E75428A8E438F447B007A9E
:100E0300007981120082AD07AC067B007A007981FC
:030E1300020CFFCF
:100E16007540FF75410E75428F8E438F447B007A75
:100E2600007991120082AD07AC067B007A007991B9
:030E3600020CFFAC
:100E39008F288E278D268C2575A890E589540F4417
:100E490020F589758DFA758BFAD28E75985043877E
:020E59008022F5
:03002300020DAA21
:100DAA00C0E0C0D075D000C000309812C2987880D8
:100DBA007614745F2555F8A699055553550FD0003A
:050DCA00D0D0D0E032A2
:030000000208DB18
:0C08DB00787FE4F6D8FD7581A1020922A7
:10078900BB010689828A83E0225002E722BBFE026E
:09079900E32289828A83E49322A1
:1007A200BB010CE58229F582E5833AF583E022500C
:1007B20006E92582F8E622BBFE06E92582F8E22256
:0D07C200E58229F582E5833AF583E4932270
:1007CF00BB010A89828A83F0E5F0A3F0225006F775
:0F07DF0009A7F01922BBFE06F3E5F009F3192272
:10002600E54C2440F8E6054C22783D30070278403E
:10003600E475F0011208000207892000EB7F2ED23A
:10004600008018EF540F2490D43440D4FF30040BB2
:10005600EF24BFB41A0050032461FFE54D6002157A
:100066004D0550E5507002054F30070D783DE4759B
:10007600F001120800EF0207EE020D837403D207A7
:100086008003E4C207F54C8B3D8A3E893FE4F54D7B
:10009600F54FF550E54D60077F2012006180F5753C
:1000A6004EFFC201C200C202C203C205C206C20896
:1000B60012002FFF700D3007057F00120072AF503F
:1000C600AE4F22B4255FC2D5C20412002FFF24D042
:1000D600B40A00501A75F00A784D30D50508B6FFF7
:1000E6000106C6A426F620D5047002D20380D924C0
:1000F600CFB41A00EF5004C2E5D204020272D20154
:1001060080C6D20080C0D20280BCD2D580BAD205C9
:1001160080B47F201200612002077401B54D0040B3
:10012600F1120026FF12006102009AD208D2068060
:1001360095120026FB120026FA120026F94A4B7089
:100146000679437A037BFF20022EE54D602A7E0066
:100156008E827583001207A260060EEE654E70F061
:10016600C2D5EBC0E0EAC0E0E9C0E0EE1202B9D0C9
:10017600E0F9D0E0FAD0E0FB120789FF60AAEBC0F5
:10018600E0EAC0E0E9C0E0120061D0E02401F9D065
:10019600E03400FAD0E0FBE54E0460DCD54ED980B1
:1001A600877BFF7A0279B5D202809C79108002792A
:1001B60008C206C2088008D2D5790A8004790AC224
:1001C600D5E54E047002F54EE4FAFDFEFF12002658
:1001D600FC7B08200113120026FD7B1030000A125A
:1001E6000026FE120026FF7B20EC3382D592D550E6
:1001F60013C3E43000069FFFE49EFEE42001039D46
:10020600FDE49CFCE4CBF8C201EC700CCFCECDCC67
:10021600E824F8F870F38017C3EF33FFEE33FEEDF2
:1002260033FDEC33FCEB33FB994002FB0FD8E9EBD3
:10023600300105F8D0E0C448B201C0E00AEC4D4EEA
:100246004F78207B0070C2EAB54E0040BCC0E01279
:1002560002BBD0F0D0E0200104C4C0E0C4B201C0AB
:10026600F012004AD0F0D5F0EB02009A1208100105
:10027600375301B15801084C01044201B54F01BD85
:0F0286004401BD49011D4301C35501A74601A70E
:100295004501A747036350010C2D01102E01332B97
:1002A500011423013120034C2A00CC480000012B06
:1002B5003F3F3F00790AA2D5200314300509B91044
:1002C500020404B9080104A2D52006025001042045
:1002D50002689202B54D005034C0E07F203003190A
:1002E5007F30A20272067205500F120312C202C2BB
:1002F50006C205C2087F30800F300503E9C0E01251
:100305000061300503D0E0F9D0E0B54DCC300517DC
:100315007F30B9100C1200617F583004077F788058
:1003250003B908031200613002057F2D0200617FC9
:10033500202008F87F2B2006F322920280CF286E1A
:10034500756C6C2900D2011200263001F8C20178C3
:100355004D30D50108F60200CC2D50434958120006
:10036500262403B405004001E490035E9312005275
:0D037500743A120052D203754D040201B11A
:1008E700020D5CE493A3F8E493A34003F68001F2BE
:1008F70008DFF48029E493A3F85407240CC8C33312
:10090700C4540F4420C8834004F456800146F6DFE0
:10091700E4800B010204081020408090000EE47E62
:10092700019360BCA3FF543F30E509541FFEE493D5
:10093700A360010ECF54C025E060A840B8E493A39C
:10094700FAE493A3F8E493A3C8C582C8CAC583CAC7
:10095700F0A3C8C582C8CAC583CADFE9DEE780BE7F
:0100110000EE
:1007EE00BB010689828A83F0225002F722BBFE01EA
:0207FE00F322E4
:10080000FAE6FB0808E6F925F0F618E6CA3AF622F9
:10081000D083D082F8E4937012740193700DA3A377
:1008200093F8740193F5828883E47374029368608B
:06083000EFA3A3A380DF8B
:100D8300EFB40A07740D120D8E740A309811A899E6
:100D9300B8130CC2983098FDA899C298B811F630D0
:070DA30099FDC299F59922A8
:00000001FF
